{
  "contractName": "MetaSaltMarketV3",
  "abi": [
    {
      "anonymous": false,
      "inputs": [
        {
          "indexed": false,
          "internalType": "bytes32",
          "name": "hash",
          "type": "bytes32"
        },
        {
          "indexed": false,
          "internalType": "address",
          "name": "maker",
          "type": "address"
        },
        {
          "components": [
            {
              "internalType": "bytes4",
              "name": "assetClass",
              "type": "bytes4"
            },
            {
              "internalType": "bytes",
              "name": "data",
              "type": "bytes"
            }
          ],
          "indexed": false,
          "internalType": "struct LibAsset.AssetType",
          "name": "makeAssetType",
          "type": "tuple"
        },
        {
          "components": [
            {
              "internalType": "bytes4",
              "name": "assetClass",
              "type": "bytes4"
            },
            {
              "internalType": "bytes",
              "name": "data",
              "type": "bytes"
            }
          ],
          "indexed": false,
          "internalType": "struct LibAsset.AssetType",
          "name": "takeAssetType",
          "type": "tuple"
        }
      ],
      "name": "Cancel",
      "type": "event"
    },
    {
      "anonymous": false,
      "inputs": [
        {
          "indexed": false,
          "internalType": "bytes32",
          "name": "leftHash",
          "type": "bytes32"
        },
        {
          "indexed": false,
          "internalType": "bytes32",
          "name": "rightHash",
          "type": "bytes32"
        },
        {
          "indexed": false,
          "internalType": "address",
          "name": "leftMaker",
          "type": "address"
        },
        {
          "indexed": false,
          "internalType": "address",
          "name": "rightMaker",
          "type": "address"
        },
        {
          "components": [
            {
              "internalType": "bytes4",
              "name": "assetClass",
              "type": "bytes4"
            },
            {
              "internalType": "bytes",
              "name": "data",
              "type": "bytes"
            }
          ],
          "indexed": false,
          "internalType": "struct LibAsset.AssetType",
          "name": "leftAsset",
          "type": "tuple"
        },
        {
          "components": [
            {
              "internalType": "bytes4",
              "name": "assetClass",
              "type": "bytes4"
            },
            {
              "internalType": "bytes",
              "name": "data",
              "type": "bytes"
            }
          ],
          "indexed": false,
          "internalType": "struct LibAsset.AssetType",
          "name": "rightAsset",
          "type": "tuple"
        }
      ],
      "name": "OrderCompleted",
      "type": "event"
    },
    {
      "anonymous": false,
      "inputs": [
        {
          "indexed": true,
          "internalType": "address",
          "name": "previousOwner",
          "type": "address"
        },
        {
          "indexed": true,
          "internalType": "address",
          "name": "newOwner",
          "type": "address"
        }
      ],
      "name": "OwnershipTransferred",
      "type": "event"
    },
    {
      "anonymous": false,
      "inputs": [
        {
          "indexed": false,
          "internalType": "address",
          "name": "account",
          "type": "address"
        }
      ],
      "name": "Paused",
      "type": "event"
    },
    {
      "anonymous": false,
      "inputs": [
        {
          "indexed": false,
          "internalType": "address",
          "name": "account",
          "type": "address"
        }
      ],
      "name": "Unpaused",
      "type": "event"
    },
    {
      "inputs": [
        {
          "components": [
            {
              "internalType": "address",
              "name": "maker",
              "type": "address"
            },
            {
              "components": [
                {
                  "components": [
                    {
                      "internalType": "bytes4",
                      "name": "assetClass",
                      "type": "bytes4"
                    },
                    {
                      "internalType": "bytes",
                      "name": "data",
                      "type": "bytes"
                    }
                  ],
                  "internalType": "struct LibAsset.AssetType",
                  "name": "assetType",
                  "type": "tuple"
                },
                {
                  "internalType": "uint256",
                  "name": "value",
                  "type": "uint256"
                }
              ],
              "internalType": "struct LibAsset.Asset",
              "name": "makeAsset",
              "type": "tuple"
            },
            {
              "internalType": "address",
              "name": "taker",
              "type": "address"
            },
            {
              "components": [
                {
                  "components": [
                    {
                      "internalType": "bytes4",
                      "name": "assetClass",
                      "type": "bytes4"
                    },
                    {
                      "internalType": "bytes",
                      "name": "data",
                      "type": "bytes"
                    }
                  ],
                  "internalType": "struct LibAsset.AssetType",
                  "name": "assetType",
                  "type": "tuple"
                },
                {
                  "internalType": "uint256",
                  "name": "value",
                  "type": "uint256"
                }
              ],
              "internalType": "struct LibAsset.Asset",
              "name": "takeAsset",
              "type": "tuple"
            },
            {
              "internalType": "bytes",
              "name": "data",
              "type": "bytes"
            }
          ],
          "internalType": "struct LibOrder.Order",
          "name": "order",
          "type": "tuple"
        }
      ],
      "name": "cancel",
      "outputs": [],
      "stateMutability": "nonpayable",
      "type": "function"
    },
    {
      "inputs": [],
      "name": "defaultFeeReceiver",
      "outputs": [
        {
          "internalType": "address",
          "name": "",
          "type": "address"
        }
      ],
      "stateMutability": "view",
      "type": "function",
      "constant": true
    },
    {
      "inputs": [],
      "name": "fundContract",
      "outputs": [],
      "stateMutability": "payable",
      "type": "function",
      "payable": true
    },
    {
      "inputs": [
        {
          "internalType": "address",
          "name": "_addr",
          "type": "address"
        }
      ],
      "name": "getWhiteList",
      "outputs": [
        {
          "internalType": "bool",
          "name": "",
          "type": "bool"
        }
      ],
      "stateMutability": "view",
      "type": "function",
      "constant": true
    },
    {
      "inputs": [
        {
          "components": [
            {
              "internalType": "bytes4",
              "name": "assetClass",
              "type": "bytes4"
            },
            {
              "internalType": "bytes",
              "name": "data",
              "type": "bytes"
            }
          ],
          "internalType": "struct LibAsset.AssetType",
          "name": "leftAssetType",
          "type": "tuple"
        },
        {
          "components": [
            {
              "internalType": "bytes4",
              "name": "assetClass",
              "type": "bytes4"
            },
            {
              "internalType": "bytes",
              "name": "data",
              "type": "bytes"
            }
          ],
          "internalType": "struct LibAsset.AssetType",
          "name": "rightAssetType",
          "type": "tuple"
        }
      ],
      "name": "matchAssets",
      "outputs": [
        {
          "components": [
            {
              "internalType": "bytes4",
              "name": "assetClass",
              "type": "bytes4"
            },
            {
              "internalType": "bytes",
              "name": "data",
              "type": "bytes"
            }
          ],
          "internalType": "struct LibAsset.AssetType",
          "name": "",
          "type": "tuple"
        }
      ],
      "stateMutability": "pure",
      "type": "function",
      "constant": true
    },
    {
      "inputs": [
        {
          "components": [
            {
              "internalType": "address",
              "name": "maker",
              "type": "address"
            },
            {
              "components": [
                {
                  "components": [
                    {
                      "internalType": "bytes4",
                      "name": "assetClass",
                      "type": "bytes4"
                    },
                    {
                      "internalType": "bytes",
                      "name": "data",
                      "type": "bytes"
                    }
                  ],
                  "internalType": "struct LibAsset.AssetType",
                  "name": "assetType",
                  "type": "tuple"
                },
                {
                  "internalType": "uint256",
                  "name": "value",
                  "type": "uint256"
                }
              ],
              "internalType": "struct LibAsset.Asset",
              "name": "makeAsset",
              "type": "tuple"
            },
            {
              "internalType": "address",
              "name": "taker",
              "type": "address"
            },
            {
              "components": [
                {
                  "components": [
                    {
                      "internalType": "bytes4",
                      "name": "assetClass",
                      "type": "bytes4"
                    },
                    {
                      "internalType": "bytes",
                      "name": "data",
                      "type": "bytes"
                    }
                  ],
                  "internalType": "struct LibAsset.AssetType",
                  "name": "assetType",
                  "type": "tuple"
                },
                {
                  "internalType": "uint256",
                  "name": "value",
                  "type": "uint256"
                }
              ],
              "internalType": "struct LibAsset.Asset",
              "name": "takeAsset",
              "type": "tuple"
            },
            {
              "internalType": "bytes",
              "name": "data",
              "type": "bytes"
            }
          ],
          "internalType": "struct LibOrder.Order",
          "name": "orderLeft",
          "type": "tuple"
        },
        {
          "internalType": "bytes",
          "name": "signatureLeft",
          "type": "bytes"
        },
        {
          "components": [
            {
              "internalType": "address",
              "name": "maker",
              "type": "address"
            },
            {
              "components": [
                {
                  "components": [
                    {
                      "internalType": "bytes4",
                      "name": "assetClass",
                      "type": "bytes4"
                    },
                    {
                      "internalType": "bytes",
                      "name": "data",
                      "type": "bytes"
                    }
                  ],
                  "internalType": "struct LibAsset.AssetType",
                  "name": "assetType",
                  "type": "tuple"
                },
                {
                  "internalType": "uint256",
                  "name": "value",
                  "type": "uint256"
                }
              ],
              "internalType": "struct LibAsset.Asset",
              "name": "makeAsset",
              "type": "tuple"
            },
            {
              "internalType": "address",
              "name": "taker",
              "type": "address"
            },
            {
              "components": [
                {
                  "components": [
                    {
                      "internalType": "bytes4",
                      "name": "assetClass",
                      "type": "bytes4"
                    },
                    {
                      "internalType": "bytes",
                      "name": "data",
                      "type": "bytes"
                    }
                  ],
                  "internalType": "struct LibAsset.AssetType",
                  "name": "assetType",
                  "type": "tuple"
                },
                {
                  "internalType": "uint256",
                  "name": "value",
                  "type": "uint256"
                }
              ],
              "internalType": "struct LibAsset.Asset",
              "name": "takeAsset",
              "type": "tuple"
            },
            {
              "internalType": "bytes",
              "name": "data",
              "type": "bytes"
            }
          ],
          "internalType": "struct LibOrder.Order",
          "name": "orderRight",
          "type": "tuple"
        },
        {
          "internalType": "bytes",
          "name": "signatureRight",
          "type": "bytes"
        }
      ],
      "name": "matchOrders",
      "outputs": [],
      "stateMutability": "payable",
      "type": "function",
      "payable": true
    },
    {
      "inputs": [
        {
          "components": [
            {
              "internalType": "address",
              "name": "maker",
              "type": "address"
            },
            {
              "components": [
                {
                  "components": [
                    {
                      "internalType": "bytes4",
                      "name": "assetClass",
                      "type": "bytes4"
                    },
                    {
                      "internalType": "bytes",
                      "name": "data",
                      "type": "bytes"
                    }
                  ],
                  "internalType": "struct LibAsset.AssetType",
                  "name": "assetType",
                  "type": "tuple"
                },
                {
                  "internalType": "uint256",
                  "name": "value",
                  "type": "uint256"
                }
              ],
              "internalType": "struct LibAsset.Asset",
              "name": "makeAsset",
              "type": "tuple"
            },
            {
              "internalType": "address",
              "name": "taker",
              "type": "address"
            },
            {
              "components": [
                {
                  "components": [
                    {
                      "internalType": "bytes4",
                      "name": "assetClass",
                      "type": "bytes4"
                    },
                    {
                      "internalType": "bytes",
                      "name": "data",
                      "type": "bytes"
                    }
                  ],
                  "internalType": "struct LibAsset.AssetType",
                  "name": "assetType",
                  "type": "tuple"
                },
                {
                  "internalType": "uint256",
                  "name": "value",
                  "type": "uint256"
                }
              ],
              "internalType": "struct LibAsset.Asset",
              "name": "takeAsset",
              "type": "tuple"
            },
            {
              "internalType": "bytes",
              "name": "data",
              "type": "bytes"
            }
          ],
          "internalType": "struct LibOrder.Order",
          "name": "orderLeft",
          "type": "tuple"
        },
        {
          "internalType": "bytes",
          "name": "signatureLeft",
          "type": "bytes"
        },
        {
          "components": [
            {
              "internalType": "address",
              "name": "maker",
              "type": "address"
            },
            {
              "components": [
                {
                  "components": [
                    {
                      "internalType": "bytes4",
                      "name": "assetClass",
                      "type": "bytes4"
                    },
                    {
                      "internalType": "bytes",
                      "name": "data",
                      "type": "bytes"
                    }
                  ],
                  "internalType": "struct LibAsset.AssetType",
                  "name": "assetType",
                  "type": "tuple"
                },
                {
                  "internalType": "uint256",
                  "name": "value",
                  "type": "uint256"
                }
              ],
              "internalType": "struct LibAsset.Asset",
              "name": "makeAsset",
              "type": "tuple"
            },
            {
              "internalType": "address",
              "name": "taker",
              "type": "address"
            },
            {
              "components": [
                {
                  "components": [
                    {
                      "internalType": "bytes4",
                      "name": "assetClass",
                      "type": "bytes4"
                    },
                    {
                      "internalType": "bytes",
                      "name": "data",
                      "type": "bytes"
                    }
                  ],
                  "internalType": "struct LibAsset.AssetType",
                  "name": "assetType",
                  "type": "tuple"
                },
                {
                  "internalType": "uint256",
                  "name": "value",
                  "type": "uint256"
                }
              ],
              "internalType": "struct LibAsset.Asset",
              "name": "takeAsset",
              "type": "tuple"
            },
            {
              "internalType": "bytes",
              "name": "data",
              "type": "bytes"
            }
          ],
          "internalType": "struct LibOrder.Order",
          "name": "orderRight",
          "type": "tuple"
        },
        {
          "internalType": "bytes",
          "name": "signatureRight",
          "type": "bytes"
        }
      ],
      "name": "matchOrdersByProcessor",
      "outputs": [],
      "stateMutability": "payable",
      "type": "function",
      "payable": true
    },
    {
      "inputs": [
        {
          "internalType": "bytes32",
          "name": "",
          "type": "bytes32"
        }
      ],
      "name": "orderState",
      "outputs": [
        {
          "internalType": "uint256",
          "name": "",
          "type": "uint256"
        }
      ],
      "stateMutability": "view",
      "type": "function",
      "constant": true
    },
    {
      "inputs": [],
      "name": "owner",
      "outputs": [
        {
          "internalType": "address",
          "name": "",
          "type": "address"
        }
      ],
      "stateMutability": "view",
      "type": "function",
      "constant": true
    },
    {
      "inputs": [],
      "name": "paused",
      "outputs": [
        {
          "internalType": "bool",
          "name": "",
          "type": "bool"
        }
      ],
      "stateMutability": "view",
      "type": "function",
      "constant": true
    },
    {
      "inputs": [],
      "name": "protocolFee",
      "outputs": [
        {
          "internalType": "uint256",
          "name": "",
          "type": "uint256"
        }
      ],
      "stateMutability": "view",
      "type": "function",
      "constant": true
    },
    {
      "inputs": [],
      "name": "renounceOwnership",
      "outputs": [],
      "stateMutability": "nonpayable",
      "type": "function"
    },
    {
      "inputs": [],
      "name": "royaltyRegister",
      "outputs": [
        {
          "internalType": "address",
          "name": "",
          "type": "address"
        }
      ],
      "stateMutability": "view",
      "type": "function",
      "constant": true
    },
    {
      "inputs": [
        {
          "internalType": "address payable",
          "name": "newDefaultFeeReceiver",
          "type": "address"
        }
      ],
      "name": "setDefaultFeeReceiver",
      "outputs": [],
      "stateMutability": "nonpayable",
      "type": "function"
    },
    {
      "inputs": [
        {
          "internalType": "uint256",
          "name": "newProtocolFee",
          "type": "uint256"
        }
      ],
      "name": "setProtocolFee",
      "outputs": [],
      "stateMutability": "nonpayable",
      "type": "function"
    },
    {
      "inputs": [
        {
          "internalType": "address",
          "name": "_newRoyaltyRegister",
          "type": "address"
        }
      ],
      "name": "setRoyaltyRegister",
      "outputs": [],
      "stateMutability": "nonpayable",
      "type": "function"
    },
    {
      "inputs": [
        {
          "internalType": "address",
          "name": "transferERC721Proxy",
          "type": "address"
        },
        {
          "internalType": "address",
          "name": "transferERC1155Proxy",
          "type": "address"
        }
      ],
      "name": "setTransferProxy",
      "outputs": [],
      "stateMutability": "nonpayable",
      "type": "function"
    },
    {
      "inputs": [
        {
          "internalType": "address",
          "name": "_addr",
          "type": "address"
        },
        {
          "internalType": "bool",
          "name": "_value",
          "type": "bool"
        }
      ],
      "name": "setWhiteList",
      "outputs": [],
      "stateMutability": "nonpayable",
      "type": "function"
    },
    {
      "inputs": [
        {
          "internalType": "address",
          "name": "newOwner",
          "type": "address"
        }
      ],
      "name": "transferOwnership",
      "outputs": [],
      "stateMutability": "nonpayable",
      "type": "function"
    },
    {
      "inputs": [
        {
          "internalType": "address",
          "name": "",
          "type": "address"
        }
      ],
      "name": "whitelists",
      "outputs": [
        {
          "internalType": "bool",
          "name": "",
          "type": "bool"
        }
      ],
      "stateMutability": "view",
      "type": "function",
      "constant": true
    },
    {
      "inputs": [
        {
          "internalType": "uint256",
          "name": "value",
          "type": "uint256"
        }
      ],
      "name": "withdraw",
      "outputs": [],
      "stateMutability": "nonpayable",
      "type": "function"
    },
    {
      "inputs": [
        {
          "internalType": "uint256",
          "name": "amount",
          "type": "uint256"
        }
      ],
      "name": "withdrawTest",
      "outputs": [],
      "stateMutability": "nonpayable",
      "type": "function"
    },
    {
      "inputs": [
        {
          "internalType": "uint256",
          "name": "newProtocolFee",
          "type": "uint256"
        },
        {
          "internalType": "address",
          "name": "newDefaultFeeReceiver",
          "type": "address"
        },
        {
          "internalType": "address",
          "name": "transferERC721Proxy",
          "type": "address"
        },
        {
          "internalType": "address",
          "name": "transferERC1155Proxy",
          "type": "address"
        }
      ],
      "name": "__MetaSaltMarket_init",
      "outputs": [],
      "stateMutability": "nonpayable",
      "type": "function"
    }
  ],
  "bytecode": "0x608060405234801561001057600080fd5b5061385b806100206000396000f3fe6080604052600436106101405760003560e01c80638da5cb5b116100b6578063bd097e211161006f578063bd097e2114610355578063d56afca61461035d578063eff55e721461037d578063f2fde38b1461039d578063f447638e146103bd578063fa43e530146103dd57610140565b80638da5cb5b146102a95780639dfe9d68146102be5780639f81cd13146102de578063aab14d04146102f3578063b0e21e8a14610320578063b4a7819f1461033557610140565b80635c975abb116101085780635c975abb146101ff5780635e9b60b1146102145780636d3f7cb014610227578063715018a614610254578063787dce3d146102695780638d14e1271461028957610140565b80631cdfe3d8146101455780631e7be210146101675780632e1a7d4d1461019d5780633abf6fd4146101bd578063481fd505146101df575b600080fd5b34801561015157600080fd5b50610165610160366004612ca8565b6103f0565b005b34801561017357600080fd5b50610187610182366004612ca8565b610475565b6040516101949190613258565b60405180910390f35b3480156101a957600080fd5b506101656101b8366004612fc7565b61048b565b3480156101c957600080fd5b506101d26104fa565b60405161019491906131c7565b3480156101eb57600080fd5b506101656101fa366004612ca8565b61050a565b34801561020b57600080fd5b5061018761058f565b610165610222366004613069565b610598565b34801561023357600080fd5b50610247610242366004612fdf565b6107bc565b604051610194919061356f565b34801561026057600080fd5b506101656108f1565b34801561027557600080fd5b50610165610284366004612fc7565b61099d565b34801561029557600080fd5b506101656102a4366004612ed3565b610a05565b3480156102b557600080fd5b506101d2610a93565b3480156102ca57600080fd5b506101876102d9366004612ca8565b610aa2565b3480156102ea57600080fd5b506101d2610ac5565b3480156102ff57600080fd5b5061031361030e366004612fc7565b610ad5565b604051610194919061369e565b34801561032c57600080fd5b50610313610ae8565b34801561034157600080fd5b50610165610350366004612fc7565b610aef565b610165610bd1565b34801561036957600080fd5b50610165610378366004612e9b565b610bd3565b34801561038957600080fd5b50610165610398366004613036565b610cb2565b3480156103a957600080fd5b506101656103b8366004612ca8565b610d5a565b3480156103c957600080fd5b506101656103d8366004613111565b610e5d565b6101656103eb366004613069565b610f27565b6103f861106f565b6001600160a01b0316610409610a93565b6001600160a01b031614610452576040805162461bcd60e51b81526020600482018190526024820152600080516020613806833981519152604482015290519081900360640190fd5b61013080546001600160a01b0319166001600160a01b0392909216919091179055565b6101616020526000908152604090205460ff1681565b61049361106f565b6001600160a01b03166104a4610a93565b6001600160a01b0316146104ed576040805162461bcd60e51b81526020600482018190526024820152600080516020613806833981519152604482015290519081900360640190fd5b6104f73382611073565b50565b610130546001600160a01b031681565b61051261106f565b6001600160a01b0316610523610a93565b6001600160a01b03161461056c576040805162461bcd60e51b81526020600482018190526024820152600080516020613806833981519152604482015290519081900360640190fd5b61013280546001600160a01b0319166001600160a01b0392909216919091179055565b60335460ff1690565b600260995414156105f0576040805162461bcd60e51b815260206004820152601f60248201527f5265656e7472616e637947756172643a207265656e7472616e742063616c6c00604482015290519081900360640190fd5b6002609955602082015151516001600160e01b0319166355575f5d60e11b146106345760405162461bcd60e51b815260040161062b90613339565b60405180910390fd5b606084015151516001600160e01b0319166355575f5d60e11b1461066a5760405162461bcd60e51b815260040161062b90613339565b60408401516001600160a01b0316156106955760405162461bcd60e51b815260040161062b90613507565b60408201516001600160a01b0316156106c05760405162461bcd60e51b815260040161062b9061338f565b336000908152610161602052604090205460ff1615156001146106f55760405162461bcd60e51b815260040161062b9061349d565b348460600151602001511461071c5760405162461bcd60e51b815260040161062b90613302565b6107268484611111565b6107308282611111565b61073a8483611156565b505061074684836111f0565b6000610751856117ec565b9050600061075e846117ec565b8651855160208901515160608a0151516040519495507f7980e0a70d0b16f81972215bd88d02e4599de4af5a3c8220130b37909e4da6b7946107a79488948894919390926132aa565b60405180910390a15050600160995550505050565b6107c46129d9565b81516001600160e01b0319166339d690a360e11b14806107f5575081516001600160e01b03191663d8f960c160e01b145b80610811575081516001600160e01b03191663025ceed960e61b145b8061082c575081516001600160e01b03191662737ea960e61b145b156108c757600080846020015180602001905181019061084c9190612e6e565b91509150600080856020015180602001905181019061086b9190612e6e565b91509150816001600160a01b0316846001600160a01b031614801561088f57508083145b156108c25750506040805180820190915284516001600160e01b03191681526020808601519082015292506108eb915050565b505050505b50604080518082018252600080825282516020818101909452908152918101919091525b92915050565b6108f961106f565b6001600160a01b031661090a610a93565b6001600160a01b031614610953576040805162461bcd60e51b81526020600482018190526024820152600080516020613806833981519152604482015290519081900360640190fd5b60fd546040516000916001600160a01b0316907f8be0079c531659141344cd1fd0a4f28419497f9722a3daafe3b4186f6b6457e0908390a360fd80546001600160a01b0319169055565b6109a561106f565b6001600160a01b03166109b6610a93565b6001600160a01b0316146109ff576040805162461bcd60e51b81526020600482018190526024820152600080516020613806833981519152604482015290519081900360640190fd5b61012f55565b610a0d61106f565b6001600160a01b0316610a1e610a93565b6001600160a01b031614610a67576040805162461bcd60e51b81526020600482018190526024820152600080516020613806833981519152604482015290519081900360640190fd5b6001600160a01b0391909116600090815261016160205260409020805460ff1916911515919091179055565b60fd546001600160a01b031690565b6001600160a01b0381166000908152610161602052604090205460ff165b919050565b610132546001600160a01b031681565b6101606020526000908152604090205481565b61012f5481565b610af761106f565b6001600160a01b0316610b08610a93565b6001600160a01b031614610b51576040805162461bcd60e51b81526020600482018190526024820152600080516020613806833981519152604482015290519081900360640190fd5b6000336001600160a01b031682604051610b6a906131c4565b60006040518083038185875af1925050503d8060008114610ba7576040519150601f19603f3d011682016040523d82523d6000602084013e610bac565b606091505b5050905080610bcd5760405162461bcd60e51b815260040161062b906134de565b5050565b565b610bdb61106f565b6001600160a01b0316610bec610a93565b6001600160a01b031614610c35576040805162461bcd60e51b81526020600482018190526024820152600080516020613806833981519152604482015290519081900360640190fd5b6101316020527ffd23a7b9b5314a90813df2b64e60502a6b31b56b5df0686ee0049c8f7717bf7980546001600160a01b039384166001600160a01b03199182161790915563025ceed960e61b6000527f63c5e593bf2ee54e7cba16647235067582c7e8fc237b6736e61c9d87d0578cf78054929093169116179055565b80516001600160a01b0316610cc561106f565b6001600160a01b031614610ceb5760405162461bcd60e51b815260040161062b9061354a565b6000610cf6826117ec565b60008181526101606020908152604091829020600390558451908501515160608601515192519394507fbbdc98cb2835f4f846e6a63700d0498b4674f0e8858fd50c6379314227afa04e93610d4e9386939291613263565b60405180910390a15050565b610d6261106f565b6001600160a01b0316610d73610a93565b6001600160a01b031614610dbc576040805162461bcd60e51b81526020600482018190526024820152600080516020613806833981519152604482015290519081900360640190fd5b6001600160a01b038116610e015760405162461bcd60e51b815260040180806020018281038252602681526020018061374d6026913960400191505060405180910390fd5b60fd546040516001600160a01b038084169216907f8be0079c531659141344cd1fd0a4f28419497f9722a3daafe3b4186f6b6457e090600090a360fd80546001600160a01b0319166001600160a01b0392909216919091179055565b600054610100900460ff1680610e765750610e766118c2565b80610e84575060005460ff16155b610ebf5760405162461bcd60e51b815260040180806020018281038252602e815260200180613795602e913960400191505060405180910390fd5b600054610100900460ff16158015610eea576000805460ff1961ff0019909116610100171660011790555b610ef26118d3565b610efa611974565b610f02611a6d565b610f0e85858585611b43565b8015610f20576000805461ff00191690555b5050505050565b60026099541415610f7f576040805162461bcd60e51b815260206004820152601f60248201527f5265656e7472616e637947756172643a207265656e7472616e742063616c6c00604482015290519081900360640190fd5b6002609955602082015151516001600160e01b0319166355575f5d60e11b14610fba5760405162461bcd60e51b815260040161062b90613339565b606084015151516001600160e01b0319166355575f5d60e11b14610ff05760405162461bcd60e51b815260040161062b90613339565b60408401516001600160a01b03161561101b5760405162461bcd60e51b815260040161062b90613507565b60408201516001600160a01b0316156110465760405162461bcd60e51b815260040161062b9061338f565b81516001600160a01b031633146106f55760405162461bcd60e51b815260040161062b90613365565b3390565b6040516000906001600160a01b0384169083908381818185875af1925050503d80600081146110be576040519150601f19603f3d011682016040523d82523d6000602084013e6110c3565b606091505b505090508061110c576040805162461bcd60e51b815260206004820152601060248201526f7472616e73666572206661696c65643160801b604482015290519081900360640190fd5b505050565b600061111c836117ec565b600081815261016060205260409020549091501561114c5760405162461bcd60e51b815260040161062b90613441565b61110c8383611c7b565b61115e6129d9565b6111666129d9565b60208401515160608401515161117c91906107bc565b80519092506001600160e01b0319166111a75760405162461bcd60e51b815260040161062b90613471565b6060840151516020840151516111bd91906107bc565b80519091506001600160e01b031916156111e95760405162461bcd60e51b815260040161062b90613471565b9250929050565b8151815160608401516020015161012f5460009061121d906103e890611217908590611cfd565b90611d5d565b9050600061122b8383611dc4565b61013054909150611245906001600160a01b031683611073565b6020870151515160609081906001600160e01b0319166339d690a360e11b14156113c85761127889602001518888611e21565b611286896020015186611ec6565b81519093509091501515806113005750805160011480156112cd5750866001600160a01b0316816000815181106112b957fe5b60200260200101516001600160a01b031614155b8015611300575060006001600160a01b0316816000815181106112ec57fe5b60200260200101516001600160a01b031614155b156113c35760005b81518110156113c15760006001600160a01b031682828151811061132857fe5b60200260200101516001600160a01b03161415801561135a5750600083828151811061135057fe5b6020026020010151115b156113b95782818151811061136b57fe5b6020026020010151840393506113b983828151811061138657fe5b602002602001015183838151811061139a57fe5b60200260200101516001600160a01b0316611fa690919063ffffffff16565b600101611308565b505b6117c8565b602089015151516001600160e01b03191663d8f960c160e01b141561150c576113f68960200151888861203f565b6114048960200151866120b7565b815190935090915015158061147e57508051600114801561144b5750866001600160a01b03168160008151811061143757fe5b60200260200101516001600160a01b031614155b801561147e575060006001600160a01b03168160008151811061146a57fe5b60200260200101516001600160a01b031614155b156113c35760005b81518110156113c15760006001600160a01b03168282815181106114a657fe5b60200260200101516001600160a01b0316141580156114d8575060008382815181106114ce57fe5b6020026020010151115b15611504578281815181106114e957fe5b60200260200101518403935061150483828151811061138657fe5b600101611486565b602089015151516001600160e01b03191663025ceed960e61b14156116835761153a89602001518888612137565b611548896020015186612190565b81519093509091501515806115c257508051600114801561158f5750866001600160a01b03168160008151811061157b57fe5b60200260200101516001600160a01b031614155b80156115c2575060006001600160a01b0316816000815181106115ae57fe5b60200260200101516001600160a01b031614155b156113c35760005b81518110156113c15760006001600160a01b03168282815181106115ea57fe5b60200260200101516001600160a01b03161415801561161c5750600083828151811061161257fe5b6020026020010151115b1561167b5782818151811061162d57fe5b60200260200101518403935061167b83828151811061164857fe5b602002602001015183838151811061165c57fe5b60200260200101516001600160a01b03166121b290919063ffffffff16565b6001016115ca565b602089015151516001600160e01b03191662737ea960e61b14156117c8576116b08960200151888861224b565b6116be8960200151866122a4565b81519093509091501515806117385750805160011480156117055750866001600160a01b0316816000815181106116f157fe5b60200260200101516001600160a01b031614155b8015611738575060006001600160a01b03168160008151811061172457fe5b60200260200101516001600160a01b031614155b156117c85760005b81518110156117c65760006001600160a01b031682828151811061176057fe5b60200260200101516001600160a01b0316141580156117925750600083828151811061178857fe5b6020026020010151115b156117be578281815181106117a357fe5b6020026020010151840393506117be83828151811061164857fe5b600101611740565b505b82156117e1576117e16001600160a01b038816846122c6565b505050505050505050565b8051602082015151600091906118019061235f565b6060840151516118109061235f565b846080015160405160200180856001600160a01b0316815260200184815260200183815260200180602001828103825283818151815260200191508051906020019080838360005b83811015611870578181015183820152602001611858565b50505050905090810190601f16801561189d5780820380516001836020036101000a031916815260200191505b5095505050505050604051602081830303815290604052805190602001209050919050565b60006118cd306123c9565b15905090565b600054610100900460ff16806118ec57506118ec6118c2565b806118fa575060005460ff16155b6119355760405162461bcd60e51b815260040180806020018281038252602e815260200180613795602e913960400191505060405180910390fd5b600054610100900460ff16158015611960576000805460ff1961ff0019909116610100171660011790555b80156104f7576000805461ff001916905550565b600054610100900460ff168061198d575061198d6118c2565b8061199b575060005460ff16155b6119d65760405162461bcd60e51b815260040180806020018281038252602e815260200180613795602e913960400191505060405180910390fd5b600054610100900460ff16158015611a01576000805460ff1961ff0019909116610100171660011790555b6000611a0b61106f565b60fd80546001600160a01b0319166001600160a01b038316908117909155604051919250906000907f8be0079c531659141344cd1fd0a4f28419497f9722a3daafe3b4186f6b6457e0908290a35080156104f7576000805461ff001916905550565b600054610100900460ff1680611a865750611a866118c2565b80611a94575060005460ff16155b611acf5760405162461bcd60e51b815260040180806020018281038252602e815260200180613795602e913960400191505060405180910390fd5b600054610100900460ff16158015611afa576000805460ff1961ff0019909116610100171660011790555b6119606040518060400160405280600e81526020016d13595d1854d85b1d13585c9ad95d60921b815250604051806040016040528060018152602001603160f81b8152506123cf565b600054610100900460ff1680611b5c5750611b5c6118c2565b80611b6a575060005460ff16155b611ba55760405162461bcd60e51b815260040180806020018281038252602e815260200180613795602e913960400191505060405180910390fd5b600054610100900460ff16158015611bd0576000805460ff1961ff0019909116610100171660011790555b6101316020527ffd23a7b9b5314a90813df2b64e60502a6b31b56b5df0686ee0049c8f7717bf7980546001600160a01b038086166001600160a01b03199283161790925563025ceed960e61b6000527f63c5e593bf2ee54e7cba16647235067582c7e8fc237b6736e61c9d87d0578cf7805485841690831617905561012f8790556101308054928716929091169190911790558015610f20576000805461ff00191690555050505050565b81516001600160a01b0316611c8e61106f565b6001600160a01b031614610bcd576000611ca78361248f565b90506000825160411415611ccb57611cc883611cc284612544565b90612590565b90505b83516001600160a01b03828116911614611cf75760405162461bcd60e51b815260040161062b906133d3565b50505050565b600082611d0c575060006108eb565b82820282848281611d1957fe5b0414611d565760405162461bcd60e51b81526004018080602001828103825260218152602001806137e56021913960400191505060405180910390fd5b9392505050565b6000808211611db3576040805162461bcd60e51b815260206004820152601a60248201527f536166654d6174683a206469766973696f6e206279207a65726f000000000000604482015290519081900360640190fd5b818381611dbc57fe5b049392505050565b600082821115611e1b576040805162461bcd60e51b815260206004820152601e60248201527f536166654d6174683a207375627472616374696f6e206f766572666c6f770000604482015290519081900360640190fd5b50900390565b600080846000015160200151806020019051810190611e409190612e6e565b915091508460200151600114611e685760405162461bcd60e51b815260040161062b90613415565b6040516323b872dd60e01b81526001600160a01b038316906323b872dd90611e98908790879086906004016131db565b600060405180830381600087803b158015611eb257600080fd5b505af11580156117e1573d6000803e3d6000fd5b6060808360200151600114611eed5760405162461bcd60e51b815260040161062b90613415565b600080856000015160200151806020019051810190611f0c9190612e6e565b61013254604051630f84100560e21b81529294509092506001600160a01b031690633e10401490611f4590859085908a90600401613237565b60006040518083038186803b158015611f5d57600080fd5b505afa158015611f71573d6000803e3d6000fd5b505050506040513d6000823e601f3d908101601f19168201604052611f999190810190612f04565b9097909650945050505050565b6040516000906001600160a01b0384169083908381818185875af1925050503d8060008114611ff1576040519150601f19603f3d011682016040523d82523d6000602084013e611ff6565b606091505b505090508061110c576040805162461bcd60e51b815260206004820152601060248201526f3a3930b739b332b9103330b4b632b21960811b604482015290519081900360640190fd5b82602001516001146120635760405162461bcd60e51b815260040161062b90613415565b6000808460000151602001518060200190518101906120829190612d97565b6040516383adacb560e01b815291935091506001600160a01b038316906383adacb590611e989084908890889060040161361d565b60608083602001516001146120de5760405162461bcd60e51b815260040161062b90613415565b6000808560000151602001518060200190518101906120fd9190612d97565b610132548151604051630f84100560e21b81529395509193506001600160a01b031691633e10401491611f45918691908a90600401613237565b6000808460000151602001518060200190518101906121569190612e6e565b91509150816001600160a01b031663f242432a85858489602001516040518563ffffffff1660e01b8152600401611e9894939291906131ff565b606080600080856000015160200151806020019051810190611f0c9190612e6e565b6040516000906001600160a01b0384169083908381818185875af1925050503d80600081146121fd576040519150601f19603f3d011682016040523d82523d6000602084013e612202565b606091505b505090508061110c576040805162461bcd60e51b815260206004820152601060248201526f7472616e73666572206661696c65643360801b604482015290519081900360640190fd5b60008084600001516020015180602001905181019061226a9190612cc4565b91509150816001600160a01b031663f8786f0f82868689602001516040518563ffffffff1660e01b8152600401611e989493929190613582565b6060806000808560000151602001518060200190518101906120fd9190612cc4565b6040516000906001600160a01b0384169083908381818185875af1925050503d8060008114612311576040519150601f19603f3d011682016040523d82523d6000602084013e612316565b606091505b505090508061110c576040805162461bcd60e51b815260206004820152601060248201526f1d1c985b9cd9995c8819985a5b19590d60821b604482015290519081900360640190fd5b8051602091820151805190830120604080517f452a0dc408cb0d27ffc3b3caff933a5208040a53a9dbecd8d89cad2c0d40e00c818601526001600160e01b031990931683820152606080840192909252805180840390920182526080909201909152805191012090565b3b151590565b600054610100900460ff16806123e857506123e86118c2565b806123f6575060005460ff16155b6124315760405162461bcd60e51b815260040180806020018281038252602e815260200180613795602e913960400191505060405180910390fd5b600054610100900460ff1615801561245c576000805460ff1961ff0019909116610100171660011790555b8251602080850191909120835191840191909120606591909155606655801561110c576000805461ff0019169055505050565b60007f74841602ef8bc0259a135b606bb44132c0ebfdc1466501e566cd8098c5490c2c82600001516124c48460200151612610565b84604001516124d68660600151612610565b86608001518051906020012060405160200180878152602001866001600160a01b03168152602001858152602001846001600160a01b031681526020018381526020018281526020019650505050505050604051602081830303815290604052805190602001209050919050565b600061254e612680565b82604051602001808061190160f01b81525060020183815260200182815260200192505050604051602081830303815290604052805190602001209050919050565b600081516041146125e8576040805162461bcd60e51b815260206004820152601f60248201527f45434453413a20696e76616c6964207369676e6174757265206c656e67746800604482015290519081900360640190fd5b60208201516040830151606084015160001a612606868285856126c0565b9695505050505050565b60007fdb6f72e915676cfc289da13bc4ece054fd17b1df6d77ffc4a60510718c236b08612640836000015161235f565b8360200151604051602001808481526020018381526020018281526020019350505050604051602081830303815290604052805190602001209050919050565b60006126bb7f8b73c3c69bb8fe3d512ecc4cf759cc79239f7b179b0ffacaa9a75d522b39400f6126ae612916565b6126b661291c565b612922565b905090565b60007f7fffffffffffffffffffffffffffffff5d576e7357a4501ddfe92f46681b20a08211156127215760405162461bcd60e51b81526004018080602001828103825260228152602001806137736022913960400191505060405180910390fd5b6000601e8560ff1611156127fb576004850360ff16601b148061274a57506004850360ff16601c145b6127855760405162461bcd60e51b81526004018080602001828103825260228152602001806137c36022913960400191505060405180910390fd5b600161279087612984565b60048703868660405160008152602001604052604051808581526020018460ff1681526020018381526020018281526020019450505050506020604051602081039080840390855afa1580156127ea573d6000803e3d6000fd5b5050506020604051035190506128b2565b8460ff16601b148061281057508460ff16601c145b61284b5760405162461bcd60e51b81526004018080602001828103825260228152602001806137c36022913960400191505060405180910390fd5b60018686868660405160008152602001604052604051808581526020018460ff1681526020018381526020018281526020019450505050506020604051602081039080840390855afa1580156128a5573d6000803e3d6000fd5b5050506020604051035190505b6001600160a01b03811661290d576040805162461bcd60e51b815260206004820152601860248201527f45434453413a20696e76616c6964207369676e61747572650000000000000000604482015290519081900360640190fd5b95945050505050565b60655490565b60665490565b600083838361292f6129d5565b3060405160200180868152602001858152602001848152602001838152602001826001600160a01b03168152602001955050505050506040516020818303038152906040528051906020012090509392505050565b604080517f19457468657265756d205369676e6564204d6573736167653a0a333200000000602080830191909152603c8083019490945282518083039094018452605c909101909152815191012090565b4690565b60408051808201909152600081526060602082015290565b8035610ac081613737565b8051610ac081613737565b600082601f830112612a17578081fd5b81516020612a2c612a27836136cb565b6136a7565b8281528181019085830183850287018401881015612a48578586fd5b855b85811015612a6657815184529284019290840190600101612a4a565b5090979650505050505050565b600082601f830112612a83578081fd5b8135612a91612a27826136e9565b818152846020838601011115612aa5578283fd5b816020850160208301379081016020019190915292915050565b600082601f830112612acf578081fd5b8151612add612a27826136e9565b818152846020838601011115612af1578283fd5b612b0282602083016020870161370b565b949350505050565b600060408284031215612b1b578081fd5b6040516040810167ffffffffffffffff8282108183111715612b3957fe5b816040528293508435915063ffffffff60e01b82168214612b5957600080fd5b90825260208401359080821115612b6f57600080fd5b50612b7c85828601612a73565b6020830152505092915050565b600060408284031215612b9a578081fd5b6040516040810167ffffffffffffffff8282108183111715612bb857fe5b816040528293508435915080821115612bd057600080fd5b50612bdd85828601612b0a565b825250602083013560208201525092915050565b600060a08284031215612c02578081fd5b612c0c60a06136a7565b9050612c17826129f1565b8152602082013567ffffffffffffffff80821115612c3457600080fd5b612c4085838601612b89565b6020840152612c51604085016129f1565b60408401526060840135915080821115612c6a57600080fd5b612c7685838601612b89565b60608401526080840135915080821115612c8f57600080fd5b50612c9c84828501612a73565b60808301525092915050565b600060208284031215612cb9578081fd5b8135611d5681613737565b60008060408385031215612cd6578081fd5b8251612ce181613737565b602084015190925067ffffffffffffffff80821115612cfe578283fd5b9084019060c08287031215612d11578283fd5b612d1b60c06136a7565b82518152602083015182811115612d30578485fd5b612d3c88828601612abf565b60208301525060408301516040820152612d58606084016129fc565b60608201526080830151608082015260a083015182811115612d78578485fd5b612d8488828601612abf565b60a0830152508093505050509250929050565b60008060408385031215612da9578182fd5b8251612db481613737565b602084015190925067ffffffffffffffff80821115612dd1578283fd5b9084019060a08287031215612de4578283fd5b60405160a081018181108382111715612df957fe5b60405282518152602083015182811115612e11578485fd5b612e1d88828601612abf565b602083015250612e2f604084016129fc565b604082015260608301516060820152608083015182811115612e4f578485fd5b612e5b88828601612abf565b6080830152508093505050509250929050565b60008060408385031215612e80578182fd5b8251612e8b81613737565b6020939093015192949293505050565b60008060408385031215612ead578182fd5b8235612eb881613737565b91506020830135612ec881613737565b809150509250929050565b60008060408385031215612ee5578182fd5b8235612ef081613737565b915060208301358015158114612ec8578182fd5b60008060408385031215612f16578182fd5b825167ffffffffffffffff80821115612f2d578384fd5b818501915085601f830112612f40578384fd5b81516020612f50612a27836136cb565b82815281810190858301838502870184018b1015612f6c578889fd5b8896505b84871015612f97578051612f8381613737565b835260019690960195918301918301612f70565b5091880151919650909350505080821115612fb0578283fd5b50612fbd85828601612a07565b9150509250929050565b600060208284031215612fd8578081fd5b5035919050565b60008060408385031215612ff1578182fd5b823567ffffffffffffffff80821115613008578384fd5b61301486838701612b0a565b93506020850135915080821115613029578283fd5b50612fbd85828601612b0a565b600060208284031215613047578081fd5b813567ffffffffffffffff81111561305d578182fd5b612b0284828501612bf1565b6000806000806080858703121561307e578182fd5b843567ffffffffffffffff80821115613095578384fd5b6130a188838901612bf1565b955060208701359150808211156130b6578384fd5b6130c288838901612a73565b945060408701359150808211156130d7578384fd5b6130e388838901612bf1565b935060608701359150808211156130f8578283fd5b5061310587828801612a73565b91505092959194509250565b60008060008060808587031215613126578182fd5b84359350602085013561313881613737565b9250604085013561314881613737565b9150606085013561315881613737565b939692955090935050565b6001600160a01b03169052565b6000815180845261318881602086016020860161370b565b601f01601f19169290920160200192915050565b600063ffffffff60e01b8251168352602082015160406020850152612b026040850182613170565b90565b6001600160a01b0391909116815260200190565b6001600160a01b039384168152919092166020820152604081019190915260600190565b6001600160a01b0394851681529290931660208301526040820152606081019190915260a06080820181905260009082015260c00190565b6001600160a01b039390931683526020830191909152604082015260600190565b901515815260200190565b8481526001600160a01b038416602082015260806040820181905260009061328d9083018561319c565b828103606084015261329f818561319c565b979650505050505050565b868152602081018690526001600160a01b0385811660408301528416606082015260c0608082018190526000906132e39083018561319c565b82810360a08401526132f5818561319c565b9998505050505050505050565b60208082526018908201527f70726963652073686f756c6420626520636f7272656374210000000000000000604082015260600190565b60208082526012908201527137b7363c9022aa241039bab83837b93a399760711b604082015260600190565b60208082526010908201526f73686f756c642062652062757965722160801b604082015260600190565b60208082526024908201527f72696768744f726465722e74616b657220766572696669636174696f6e2066616040820152631a5b195960e21b606082015260800190565b60208082526022908201527f6f72646572207369676e617475726520766572696669636174696f6e2065727260408201526137b960f11b606082015260800190565b60208082526012908201527132b9319b9918903b30b63ab29032b93937b960711b604082015260600190565b60208082526016908201527527b93232b91029b437bab632103132902b30b634b21760511b604082015260600190565b6020808252601290820152710c2e6e6cae8e640c8dedc4ee840dac2e8c6d60731b604082015260600190565b60208082526021908201527f70726f636573736f722073686f756c6420626520696e2077686974656c6973746040820152602160f81b606082015260800190565b6020808252600f908201526e1d1c985b9cd9995c8819985a5b1959608a1b604082015260600190565b60208082526023908201527f6c6566744f726465722e74616b657220766572696669636174696f6e206661696040820152621b195960ea1b606082015260800190565b6020808252600b908201526a3737ba10309036b0b5b2b960a91b604082015260600190565b600060208252611d56602083018461319c565b60006080825285516080830152602086015160c060a08401526135a9610140840182613170565b604088015160c085015260608801516001600160a01b031660e0850152608088015161010085015260a0880151848203607f19016101208601529091506135f08282613170565b925050506136016020830186613163565b61360e6040830185613163565b82606083015295945050505050565b60006060825284516060830152602085015160a06080840152613644610100840182613170565b60408701516001600160a01b0390811660a0860152606088015160c08601526080880151858303605f190160e08701529192506136818383613170565b935080871660208601528086166040860152505050949350505050565b90815260200190565b60405181810167ffffffffffffffff811182821017156136c357fe5b604052919050565b600067ffffffffffffffff8211156136df57fe5b5060209081020190565b600067ffffffffffffffff8211156136fd57fe5b50601f01601f191660200190565b60005b8381101561372657818101518382015260200161370e565b83811115611cf75750506000910152565b6001600160a01b03811681146104f757600080fdfe4f776e61626c653a206e6577206f776e657220697320746865207a65726f206164647265737345434453413a20696e76616c6964207369676e6174757265202773272076616c7565496e697469616c697a61626c653a20636f6e747261637420697320616c726561647920696e697469616c697a656445434453413a20696e76616c6964207369676e6174757265202776272076616c7565536166654d6174683a206d756c7469706c69636174696f6e206f766572666c6f774f776e61626c653a2063616c6c6572206973206e6f7420746865206f776e6572a26469706673582212206ab0d355a3677a47e2f50bf07acaa5f404aff8e0eb0aeb10956d1af56cea291764736f6c63430007060033",
  "immutableReferences": {},
  "source": "// SPDX-License-Identifier: MIT\n\npragma solidity 0.7.6;\npragma abicoder v2;\nimport \"./MarketCoreV3.sol\";\n\ncontract MetaSaltMarketV3 is MarketCoreV3 {\n    function __MetaSaltMarket_init(\n        uint newProtocolFee,\n        address newDefaultFeeReceiver,\n        address transferERC721Proxy,\n        address transferERC1155Proxy\n    ) external initializer {\n        __Context_init_unchained();\n        __Ownable_init_unchained();                \n        __OrderValidator_init_unchained();\n        __TransferManager_init_unchained(newProtocolFee, newDefaultFeeReceiver, transferERC721Proxy, transferERC1155Proxy);\n    }\n}",
  "sourcePath": "/Volumes/Data/MetaSalt/smart_contracts/market/contracts/V3/MetaSaltMarketV3.sol",
  "compiler": {
    "name": "solc",
    "version": "0.7.6+commit.7338295f.Emscripten.clang"
  },
  "schemaVersion": "3.4.5",
  "updatedAt": "2023-03-21T01:08:33.526Z",
  "networkType": "ethereum",
  "devdoc": {
    "kind": "dev",
    "methods": {
      "owner()": {
        "details": "Returns the address of the current owner."
      },
      "paused()": {
        "details": "Returns true if the contract is paused, and false otherwise."
      },
      "renounceOwnership()": {
        "details": "Leaves the contract without owner. It will not be possible to call `onlyOwner` functions anymore. Can only be called by the current owner. NOTE: Renouncing ownership will leave the contract without an owner, thereby removing any functionality that is only available to the owner."
      },
      "transferOwnership(address)": {
        "details": "Transfers ownership of the contract to a new account (`newOwner`). Can only be called by the current owner."
      }
    },
    "version": 1
  },
  "userdoc": {
    "kind": "user",
    "methods": {},
    "version": 1
  }
}